{
  "_format": "hh-sol-artifact-1",
  "contractName": "TwitterContract",
  "sourceName": "contracts/TweeterContract.sol",
  "abi": [
    {
      "anonymous": false,
      "inputs": [
        {
          "indexed": false,
          "internalType": "uint256",
          "name": "tweetID",
          "type": "uint256"
        },
        {
          "indexed": false,
          "internalType": "address",
          "name": "owner",
          "type": "address"
        },
        {
          "indexed": false,
          "internalType": "string",
          "name": "tweetText",
          "type": "string"
        },
        {
          "indexed": false,
          "internalType": "bool",
          "name": "isDeleted",
          "type": "bool"
        }
      ],
      "name": "CreateTweet",
      "type": "event"
    },
    {
      "anonymous": false,
      "inputs": [
        {
          "indexed": false,
          "internalType": "uint256",
          "name": "tweetID",
          "type": "uint256"
        },
        {
          "indexed": false,
          "internalType": "bool",
          "name": "isDeleted",
          "type": "bool"
        }
      ],
      "name": "DeleteTweet",
      "type": "event"
    },
    {
      "anonymous": false,
      "inputs": [
        {
          "indexed": false,
          "internalType": "uint256",
          "name": "tweetID",
          "type": "uint256"
        },
        {
          "indexed": false,
          "internalType": "address",
          "name": "owner",
          "type": "address"
        },
        {
          "indexed": false,
          "internalType": "string",
          "name": "tweetText",
          "type": "string"
        },
        {
          "indexed": false,
          "internalType": "bool",
          "name": "isDeleted",
          "type": "bool"
        }
      ],
      "name": "UpdateTweet",
      "type": "event"
    },
    {
      "inputs": [],
      "name": "GetNewId",
      "outputs": [
        {
          "internalType": "uint256",
          "name": "",
          "type": "uint256"
        }
      ],
      "stateMutability": "view",
      "type": "function"
    },
    {
      "inputs": [
        {
          "internalType": "string",
          "name": "tweetText",
          "type": "string"
        },
        {
          "internalType": "bool",
          "name": "isDeleted",
          "type": "bool"
        }
      ],
      "name": "createTweet",
      "outputs": [],
      "stateMutability": "nonpayable",
      "type": "function"
    },
    {
      "inputs": [
        {
          "internalType": "uint256",
          "name": "tweetId",
          "type": "uint256"
        },
        {
          "internalType": "bool",
          "name": "isDeleted",
          "type": "bool"
        }
      ],
      "name": "deleteTweet",
      "outputs": [],
      "stateMutability": "nonpayable",
      "type": "function"
    },
    {
      "inputs": [],
      "name": "getAllAvailableTweets",
      "outputs": [
        {
          "components": [
            {
              "internalType": "uint256",
              "name": "tweetID",
              "type": "uint256"
            },
            {
              "internalType": "address",
              "name": "owner",
              "type": "address"
            },
            {
              "internalType": "string",
              "name": "tweetText",
              "type": "string"
            },
            {
              "internalType": "bool",
              "name": "isDeleted",
              "type": "bool"
            }
          ],
          "internalType": "struct TwitterContract.Tweet[]",
          "name": "",
          "type": "tuple[]"
        }
      ],
      "stateMutability": "view",
      "type": "function"
    },
    {
      "inputs": [],
      "name": "getMyAvailableTweets",
      "outputs": [
        {
          "components": [
            {
              "internalType": "uint256",
              "name": "tweetID",
              "type": "uint256"
            },
            {
              "internalType": "address",
              "name": "owner",
              "type": "address"
            },
            {
              "internalType": "string",
              "name": "tweetText",
              "type": "string"
            },
            {
              "internalType": "bool",
              "name": "isDeleted",
              "type": "bool"
            }
          ],
          "internalType": "struct TwitterContract.Tweet[]",
          "name": "",
          "type": "tuple[]"
        }
      ],
      "stateMutability": "view",
      "type": "function"
    },
    {
      "inputs": [
        {
          "internalType": "uint256",
          "name": "",
          "type": "uint256"
        }
      ],
      "name": "tweets",
      "outputs": [
        {
          "internalType": "uint256",
          "name": "tweetID",
          "type": "uint256"
        },
        {
          "internalType": "address",
          "name": "owner",
          "type": "address"
        },
        {
          "internalType": "string",
          "name": "tweetText",
          "type": "string"
        },
        {
          "internalType": "bool",
          "name": "isDeleted",
          "type": "bool"
        }
      ],
      "stateMutability": "view",
      "type": "function"
    },
    {
      "inputs": [
        {
          "internalType": "uint256",
          "name": "_tweetID",
          "type": "uint256"
        },
        {
          "internalType": "string",
          "name": "_tweetText",
          "type": "string"
        }
      ],
      "name": "updateTweet",
      "outputs": [],
      "stateMutability": "nonpayable",
      "type": "function"
    }
  ],
  "bytecode": "0x608060405234801561001057600080fd5b50611737806100206000396000f3fe608060405234801561001057600080fd5b506004361061007d5760003560e01c806395d7da3f1161005b57806395d7da3f146100da578063e8d857b0146100f8578063f0312a371461012b578063f5c83a2e146101475761007d565b80632c37bd44146100825780635e18f931146100a05780637c0aa77a146100be575b600080fd5b61008a610163565b604051610097919061134f565b60405180910390f35b6100a861016d565b6040516100b5919061130d565b60405180910390f35b6100d860048036038101906100d39190611073565b61061e565b005b6100e261072b565b6040516100ef919061130d565b60405180910390f35b610112600480360381019061010d919061100e565b610aac565b604051610122949392919061136a565b60405180910390f35b61014560048036038101906101409190611037565b610b91565b005b610161600480360381019061015c9190610fba565b610c63565b005b6000600254905090565b6060600060018054905067ffffffffffffffff8111156101b6577f4e487b7100000000000000000000000000000000000000000000000000000000600052604160045260246000fd5b6040519080825280602002602001820160405280156101ef57816020015b6101dc610e45565b8152602001906001900390816101d45790505b5090506000805b6001805490508110156104f2573373ffffffffffffffffffffffffffffffffffffffff166003600060018481548110610258577f4e487b7100000000000000000000000000000000000000000000000000000000600052603260045260246000fd5b9060005260206000200154815260200190815260200160002060009054906101000a900473ffffffffffffffffffffffffffffffffffffffff1673ffffffffffffffffffffffffffffffffffffffff161480156103195750600080600183815481106102ed577f4e487b7100000000000000000000000000000000000000000000000000000000600052603260045260246000fd5b9060005260206000200154815260200190815260200160002060030160009054906101000a900460ff16155b156104df576000806001838154811061035b577f4e487b7100000000000000000000000000000000000000000000000000000000600052603260045260246000fd5b90600052602060002001548152602001908152602001600020604051806080016040529081600082015481526020016001820160009054906101000a900473ffffffffffffffffffffffffffffffffffffffff1673ffffffffffffffffffffffffffffffffffffffff1673ffffffffffffffffffffffffffffffffffffffff1681526020016002820180546103ef90611525565b80601f016020809104026020016040519081016040528092919081815260200182805461041b90611525565b80156104685780601f1061043d57610100808354040283529160200191610468565b820191906000526020600020905b81548152906001019060200180831161044b57829003601f168201915b505050505081526020016003820160009054906101000a900460ff1615151515815250508383815181106104c5577f4e487b7100000000000000000000000000000000000000000000000000000000600052603260045260246000fd5b602002602001018190525081806104db90611588565b9250505b80806104ea90611588565b9150506101f6565b5060008167ffffffffffffffff811115610535577f4e487b7100000000000000000000000000000000000000000000000000000000600052604160045260246000fd5b60405190808252806020026020018201604052801561056e57816020015b61055b610e45565b8152602001906001900390816105535790505b50905060005b82811015610614578381815181106105b5577f4e487b7100000000000000000000000000000000000000000000000000000000600052603260045260246000fd5b60200260200101518282815181106105f6577f4e487b7100000000000000000000000000000000000000000000000000000000600052603260045260246000fd5b6020026020010181905250808061060c90611588565b915050610574565b5080935050505090565b3373ffffffffffffffffffffffffffffffffffffffff166003600084815260200190815260200160002060009054906101000a900473ffffffffffffffffffffffffffffffffffffffff1673ffffffffffffffffffffffffffffffffffffffff16146106bf576040517f08c379a00000000000000000000000000000000000000000000000000000000081526004016106b69061132f565b60405180910390fd5b8060008084815260200190815260200160002060020190805190602001906106e8929190610e85565b507fe844a96f58b0b9a5f905cb1381afff0738a5d6a16583726b683234e00e653fdd823383600060405161071f949392919061136a565b60405180910390a15050565b6060600060018054905067ffffffffffffffff811115610774577f4e487b7100000000000000000000000000000000000000000000000000000000600052604160045260246000fd5b6040519080825280602002602001820160405280156107ad57816020015b61079a610e45565b8152602001906001900390816107925790505b5090506000805b600180549050811015610980576000151560008083815260200190815260200160002060030160009054906101000a900460ff161515141561096d57600080828152602001908152602001600020604051806080016040529081600082015481526020016001820160009054906101000a900473ffffffffffffffffffffffffffffffffffffffff1673ffffffffffffffffffffffffffffffffffffffff1673ffffffffffffffffffffffffffffffffffffffff16815260200160028201805461087d90611525565b80601f01602080910402602001604051908101604052809291908181526020018280546108a990611525565b80156108f65780601f106108cb576101008083540402835291602001916108f6565b820191906000526020600020905b8154815290600101906020018083116108d957829003601f168201915b505050505081526020016003820160009054906101000a900460ff161515151581525050838381518110610953577f4e487b7100000000000000000000000000000000000000000000000000000000600052603260045260246000fd5b6020026020010181905250818061096990611588565b9250505b808061097890611588565b9150506107b4565b5060008167ffffffffffffffff8111156109c3577f4e487b7100000000000000000000000000000000000000000000000000000000600052604160045260246000fd5b6040519080825280602002602001820160405280156109fc57816020015b6109e9610e45565b8152602001906001900390816109e15790505b50905060005b82811015610aa257838181518110610a43577f4e487b7100000000000000000000000000000000000000000000000000000000600052603260045260246000fd5b6020026020010151828281518110610a84577f4e487b7100000000000000000000000000000000000000000000000000000000600052603260045260246000fd5b60200260200101819052508080610a9a90611588565b915050610a02565b5080935050505090565b60006020528060005260406000206000915090508060000154908060010160009054906101000a900473ffffffffffffffffffffffffffffffffffffffff1690806002018054610afb90611525565b80601f0160208091040260200160405190810160405280929190818152602001828054610b2790611525565b8015610b745780601f10610b4957610100808354040283529160200191610b74565b820191906000526020600020905b815481529060010190602001808311610b5757829003601f168201915b5050505050908060030160009054906101000a900460ff16905084565b3373ffffffffffffffffffffffffffffffffffffffff166003600084815260200190815260200160002060009054906101000a900473ffffffffffffffffffffffffffffffffffffffff1673ffffffffffffffffffffffffffffffffffffffff161415610c5f578060008084815260200190815260200160002060030160006101000a81548160ff0219169083151502179055507f2430f837dd2fb40e08c064be9db3d0cf2a7a21f8fe716a2a41787dafc66a7e2a8282604051610c569291906113b6565b60405180910390a15b5050565b6000610c6d610e10565b90508060028190555060405180608001604052808281526020013373ffffffffffffffffffffffffffffffffffffffff1681526020018481526020018315158152506000808381526020019081526020016000206000820151816000015560208201518160010160006101000a81548173ffffffffffffffffffffffffffffffffffffffff021916908373ffffffffffffffffffffffffffffffffffffffff1602179055506040820151816002019080519060200190610d2e929190610e85565b5060608201518160030160006101000a81548160ff0219169083151502179055509050506001819080600181540180825580915050600190039060005260206000200160009091909190915055336003600083815260200190815260200160002060006101000a81548173ffffffffffffffffffffffffffffffffffffffff021916908373ffffffffffffffffffffffffffffffffffffffff1602179055507f18c35a5c2d6030586c9f3c618175f22633bddd1d5ab46246fda61c59131935bf8133856000604051610e03949392919061136a565b60405180910390a1505050565b6000444233604051602001610e27939291906112d0565b6040516020818303038152906040528051906020012060001c905090565b604051806080016040528060008152602001600073ffffffffffffffffffffffffffffffffffffffff168152602001606081526020016000151581525090565b828054610e9190611525565b90600052602060002090601f016020900481019282610eb35760008555610efa565b82601f10610ecc57805160ff1916838001178555610efa565b82800160010185558215610efa579182015b82811115610ef9578251825591602001919060010190610ede565b5b509050610f079190610f0b565b5090565b5b80821115610f24576000816000905550600101610f0c565b5090565b6000610f3b610f3684611404565b6113df565b905082815260208101848484011115610f5357600080fd5b610f5e8482856114e3565b509392505050565b600081359050610f75816116d3565b92915050565b600082601f830112610f8c57600080fd5b8135610f9c848260208601610f28565b91505092915050565b600081359050610fb4816116ea565b92915050565b60008060408385031215610fcd57600080fd5b600083013567ffffffffffffffff811115610fe757600080fd5b610ff385828601610f7b565b925050602061100485828601610f66565b9150509250929050565b60006020828403121561102057600080fd5b600061102e84828501610fa5565b91505092915050565b6000806040838503121561104a57600080fd5b600061105885828601610fa5565b925050602061106985828601610f66565b9150509250929050565b6000806040838503121561108657600080fd5b600061109485828601610fa5565b925050602083013567ffffffffffffffff8111156110b157600080fd5b6110bd85828601610f7b565b9150509250929050565b60006110d38383611238565b905092915050565b6110e48161149b565b82525050565b6110f38161149b565b82525050565b61110a6111058261149b565b6115d1565b82525050565b600061111b82611445565b6111258185611468565b93508360208202850161113785611435565b8060005b85811015611173578484038952815161115485826110c7565b945061115f8361145b565b925060208a0199505060018101905061113b565b50829750879550505050505092915050565b61118e816114ad565b82525050565b61119d816114ad565b82525050565b60006111ae82611450565b6111b88185611479565b93506111c88185602086016114f2565b6111d18161168c565b840191505092915050565b60006111e782611450565b6111f1818561148a565b93506112018185602086016114f2565b61120a8161168c565b840191505092915050565b600061122260178361148a565b915061122d826116aa565b602082019050919050565b6000608083016000830151611250600086018261129b565b50602083015161126360208601826110db565b506040830151848203604086015261127b82826111a3565b91505060608301516112906060860182611185565b508091505092915050565b6112a4816114d9565b82525050565b6112b3816114d9565b82525050565b6112ca6112c5826114d9565b6115f5565b82525050565b60006112dc82866112b9565b6020820191506112ec82856112b9565b6020820191506112fc82846110f9565b601482019150819050949350505050565b600060208201905081810360008301526113278184611110565b905092915050565b6000602082019050818103600083015261134881611215565b9050919050565b600060208201905061136460008301846112aa565b92915050565b600060808201905061137f60008301876112aa565b61138c60208301866110ea565b818103604083015261139e81856111dc565b90506113ad6060830184611194565b95945050505050565b60006040820190506113cb60008301856112aa565b6113d86020830184611194565b9392505050565b60006113e96113fa565b90506113f58282611557565b919050565b6000604051905090565b600067ffffffffffffffff82111561141f5761141e61165d565b5b6114288261168c565b9050602081019050919050565b6000819050602082019050919050565b600081519050919050565b600081519050919050565b6000602082019050919050565b600082825260208201905092915050565b600082825260208201905092915050565b600082825260208201905092915050565b60006114a6826114b9565b9050919050565b60008115159050919050565b600073ffffffffffffffffffffffffffffffffffffffff82169050919050565b6000819050919050565b82818337600083830152505050565b60005b838110156115105780820151818401526020810190506114f5565b8381111561151f576000848401525b50505050565b6000600282049050600182168061153d57607f821691505b602082108114156115515761155061162e565b5b50919050565b6115608261168c565b810181811067ffffffffffffffff8211171561157f5761157e61165d565b5b80604052505050565b6000611593826114d9565b91507fffffffffffffffffffffffffffffffffffffffffffffffffffffffffffffffff8214156115c6576115c56115ff565b5b600182019050919050565b60006115dc826115e3565b9050919050565b60006115ee8261169d565b9050919050565b6000819050919050565b7f4e487b7100000000000000000000000000000000000000000000000000000000600052601160045260246000fd5b7f4e487b7100000000000000000000000000000000000000000000000000000000600052602260045260246000fd5b7f4e487b7100000000000000000000000000000000000000000000000000000000600052604160045260246000fd5b6000601f19601f8301169050919050565b60008160601b9050919050565b7f596f7520617265206e6f74207477656574206f776e6572000000000000000000600082015250565b6116dc816114ad565b81146116e757600080fd5b50565b6116f3816114d9565b81146116fe57600080fd5b5056fea26469706673582212200304cdfa8edf013871a09a7fa65992588916484a54af04adc04bfbf9b613992a64736f6c63430008040033",
  "linkReferences": {},
  "deployedLinkReferences": {}
}