{
  "_format": "hh-sol-artifact-1",
  "contractName": "TwitterContract",
  "sourceName": "contracts/TweeterContract.sol",
  "abi": [
    {
      "anonymous": false,
      "inputs": [
        {
          "indexed": false,
          "internalType": "uint256",
          "name": "tweetID",
          "type": "uint256"
        },
        {
          "indexed": false,
          "internalType": "address",
          "name": "owner",
          "type": "address"
        },
        {
          "indexed": false,
          "internalType": "string",
          "name": "tweetText",
          "type": "string"
        },
        {
          "indexed": false,
          "internalType": "bool",
          "name": "isDeleted",
          "type": "bool"
        }
      ],
      "name": "CreateTweet",
      "type": "event"
    },
    {
      "anonymous": false,
      "inputs": [
        {
          "indexed": false,
          "internalType": "uint256",
          "name": "tweetID",
          "type": "uint256"
        },
        {
          "indexed": false,
          "internalType": "bool",
          "name": "isDeleted",
          "type": "bool"
        }
      ],
      "name": "DeleteTweet",
      "type": "event"
    },
    {
      "anonymous": false,
      "inputs": [
        {
          "indexed": false,
          "internalType": "uint256",
          "name": "tweetID",
          "type": "uint256"
        },
        {
          "indexed": false,
          "internalType": "address",
          "name": "owner",
          "type": "address"
        },
        {
          "indexed": false,
          "internalType": "string",
          "name": "tweetText",
          "type": "string"
        },
        {
          "indexed": false,
          "internalType": "bool",
          "name": "isDeleted",
          "type": "bool"
        }
      ],
      "name": "UpdateTweet",
      "type": "event"
    },
    {
      "inputs": [],
      "name": "GetNewId",
      "outputs": [
        {
          "internalType": "uint256",
          "name": "",
          "type": "uint256"
        }
      ],
      "stateMutability": "view",
      "type": "function"
    },
    {
      "inputs": [
        {
          "internalType": "string",
          "name": "_tweetText",
          "type": "string"
        }
      ],
      "name": "createTweet",
      "outputs": [],
      "stateMutability": "nonpayable",
      "type": "function"
    },
    {
      "inputs": [
        {
          "internalType": "uint256",
          "name": "_tweetID",
          "type": "uint256"
        }
      ],
      "name": "deleteTweet",
      "outputs": [],
      "stateMutability": "nonpayable",
      "type": "function"
    },
    {
      "inputs": [],
      "name": "getAllAvailableTweets",
      "outputs": [
        {
          "components": [
            {
              "internalType": "uint256",
              "name": "tweetID",
              "type": "uint256"
            },
            {
              "internalType": "address",
              "name": "owner",
              "type": "address"
            },
            {
              "internalType": "string",
              "name": "tweetText",
              "type": "string"
            },
            {
              "internalType": "bool",
              "name": "isDeleted",
              "type": "bool"
            }
          ],
          "internalType": "struct TwitterContract.Tweet[]",
          "name": "",
          "type": "tuple[]"
        }
      ],
      "stateMutability": "view",
      "type": "function"
    },
    {
      "inputs": [],
      "name": "getMyAvailableTweets",
      "outputs": [
        {
          "components": [
            {
              "internalType": "uint256",
              "name": "tweetID",
              "type": "uint256"
            },
            {
              "internalType": "address",
              "name": "owner",
              "type": "address"
            },
            {
              "internalType": "string",
              "name": "tweetText",
              "type": "string"
            },
            {
              "internalType": "bool",
              "name": "isDeleted",
              "type": "bool"
            }
          ],
          "internalType": "struct TwitterContract.Tweet[]",
          "name": "",
          "type": "tuple[]"
        }
      ],
      "stateMutability": "view",
      "type": "function"
    },
    {
      "inputs": [
        {
          "internalType": "uint256",
          "name": "",
          "type": "uint256"
        }
      ],
      "name": "tweets",
      "outputs": [
        {
          "internalType": "uint256",
          "name": "tweetID",
          "type": "uint256"
        },
        {
          "internalType": "address",
          "name": "owner",
          "type": "address"
        },
        {
          "internalType": "string",
          "name": "tweetText",
          "type": "string"
        },
        {
          "internalType": "bool",
          "name": "isDeleted",
          "type": "bool"
        }
      ],
      "stateMutability": "view",
      "type": "function"
    },
    {
      "inputs": [
        {
          "internalType": "uint256",
          "name": "_tweetID",
          "type": "uint256"
        },
        {
          "internalType": "string",
          "name": "_tweetText",
          "type": "string"
        }
      ],
      "name": "updateTweet",
      "outputs": [],
      "stateMutability": "nonpayable",
      "type": "function"
    }
  ],
  "bytecode": "0x608060405234801561001057600080fd5b50611776806100206000396000f3fe608060405234801561001057600080fd5b506004361061007d5760003560e01c80637c0aa77a1161005b5780637c0aa77a146100da5780637c9cd2bc146100f657806395d7da3f14610112578063e8d857b0146101305761007d565b80632c37bd44146100825780635775912a146100a05780635e18f931146100bc575b600080fd5b61008a610163565b60405161009791906113a5565b60405180910390f35b6100ba60048036038101906100b591906110a0565b61016d565b005b6100c4610279565b6040516100d19190611363565b60405180910390f35b6100f460048036038101906100ef91906110c9565b61072a565b005b610110600480360381019061010b919061105f565b610837565b005b61011a6109e4565b6040516101279190611363565b60405180910390f35b61014a600480360381019061014591906110a0565b610de5565b60405161015a94939291906113c0565b60405180910390f35b6000600254905090565b3373ffffffffffffffffffffffffffffffffffffffff166003600083815260200190815260200160002060009054906101000a900473ffffffffffffffffffffffffffffffffffffffff1673ffffffffffffffffffffffffffffffffffffffff161461020e576040517f08c379a000000000000000000000000000000000000000000000000000000000815260040161020590611385565b60405180910390fd5b600160008083815260200190815260200160002060030160006101000a81548160ff0219169083151502179055507f2430f837dd2fb40e08c064be9db3d0cf2a7a21f8fe716a2a41787dafc66a7e2a81600160405161026e92919061140c565b60405180910390a150565b6060600060018054905067ffffffffffffffff8111156102c2577f4e487b7100000000000000000000000000000000000000000000000000000000600052604160045260246000fd5b6040519080825280602002602001820160405280156102fb57816020015b6102e8610eff565b8152602001906001900390816102e05790505b5090506000805b6001805490508110156105fe573373ffffffffffffffffffffffffffffffffffffffff166003600060018481548110610364577f4e487b7100000000000000000000000000000000000000000000000000000000600052603260045260246000fd5b9060005260206000200154815260200190815260200160002060009054906101000a900473ffffffffffffffffffffffffffffffffffffffff1673ffffffffffffffffffffffffffffffffffffffff161480156104255750600080600183815481106103f9577f4e487b7100000000000000000000000000000000000000000000000000000000600052603260045260246000fd5b9060005260206000200154815260200190815260200160002060030160009054906101000a900460ff16155b156105eb5760008060018381548110610467577f4e487b7100000000000000000000000000000000000000000000000000000000600052603260045260246000fd5b90600052602060002001548152602001908152602001600020604051806080016040529081600082015481526020016001820160009054906101000a900473ffffffffffffffffffffffffffffffffffffffff1673ffffffffffffffffffffffffffffffffffffffff1673ffffffffffffffffffffffffffffffffffffffff1681526020016002820180546104fb9061157b565b80601f01602080910402602001604051908101604052809291908181526020018280546105279061157b565b80156105745780601f1061054957610100808354040283529160200191610574565b820191906000526020600020905b81548152906001019060200180831161055757829003601f168201915b505050505081526020016003820160009054906101000a900460ff1615151515815250508383815181106105d1577f4e487b7100000000000000000000000000000000000000000000000000000000600052603260045260246000fd5b602002602001018190525081806105e7906115de565b9250505b80806105f6906115de565b915050610302565b5060008167ffffffffffffffff811115610641577f4e487b7100000000000000000000000000000000000000000000000000000000600052604160045260246000fd5b60405190808252806020026020018201604052801561067a57816020015b610667610eff565b81526020019060019003908161065f5790505b50905060005b82811015610720578381815181106106c1577f4e487b7100000000000000000000000000000000000000000000000000000000600052603260045260246000fd5b6020026020010151828281518110610702577f4e487b7100000000000000000000000000000000000000000000000000000000600052603260045260246000fd5b60200260200101819052508080610718906115de565b915050610680565b5080935050505090565b3373ffffffffffffffffffffffffffffffffffffffff166003600084815260200190815260200160002060009054906101000a900473ffffffffffffffffffffffffffffffffffffffff1673ffffffffffffffffffffffffffffffffffffffff16146107cb576040517f08c379a00000000000000000000000000000000000000000000000000000000081526004016107c290611385565b60405180910390fd5b8060008084815260200190815260200160002060020190805190602001906107f4929190610f3f565b507fe844a96f58b0b9a5f905cb1381afff0738a5d6a16583726b683234e00e653fdd823383600060405161082b94939291906113c0565b60405180910390a15050565b6000610841610eca565b90508060028190555060405180608001604052808281526020013373ffffffffffffffffffffffffffffffffffffffff168152602001838152602001600015158152506000808381526020019081526020016000206000820151816000015560208201518160010160006101000a81548173ffffffffffffffffffffffffffffffffffffffff021916908373ffffffffffffffffffffffffffffffffffffffff1602179055506040820151816002019080519060200190610903929190610f3f565b5060608201518160030160006101000a81548160ff0219169083151502179055509050506001819080600181540180825580915050600190039060005260206000200160009091909190915055336003600083815260200190815260200160002060006101000a81548173ffffffffffffffffffffffffffffffffffffffff021916908373ffffffffffffffffffffffffffffffffffffffff1602179055507f18c35a5c2d6030586c9f3c618175f22633bddd1d5ab46246fda61c59131935bf81338460006040516109d894939291906113c0565b60405180910390a15050565b6060600060018054905067ffffffffffffffff811115610a2d577f4e487b7100000000000000000000000000000000000000000000000000000000600052604160045260246000fd5b604051908082528060200260200182016040528015610a6657816020015b610a53610eff565b815260200190600190039081610a4b5790505b5090506000805b600180549050811015610cb95760008060018381548110610ab7577f4e487b7100000000000000000000000000000000000000000000000000000000600052603260045260246000fd5b9060005260206000200154815260200190815260200160002060030160009054906101000a900460ff16610ca65760008060018381548110610b22577f4e487b7100000000000000000000000000000000000000000000000000000000600052603260045260246000fd5b90600052602060002001548152602001908152602001600020604051806080016040529081600082015481526020016001820160009054906101000a900473ffffffffffffffffffffffffffffffffffffffff1673ffffffffffffffffffffffffffffffffffffffff1673ffffffffffffffffffffffffffffffffffffffff168152602001600282018054610bb69061157b565b80601f0160208091040260200160405190810160405280929190818152602001828054610be29061157b565b8015610c2f5780601f10610c0457610100808354040283529160200191610c2f565b820191906000526020600020905b815481529060010190602001808311610c1257829003601f168201915b505050505081526020016003820160009054906101000a900460ff161515151581525050838381518110610c8c577f4e487b7100000000000000000000000000000000000000000000000000000000600052603260045260246000fd5b60200260200101819052508180610ca2906115de565b9250505b8080610cb1906115de565b915050610a6d565b5060008167ffffffffffffffff811115610cfc577f4e487b7100000000000000000000000000000000000000000000000000000000600052604160045260246000fd5b604051908082528060200260200182016040528015610d3557816020015b610d22610eff565b815260200190600190039081610d1a5790505b50905060005b82811015610ddb57838181518110610d7c577f4e487b7100000000000000000000000000000000000000000000000000000000600052603260045260246000fd5b6020026020010151828281518110610dbd577f4e487b7100000000000000000000000000000000000000000000000000000000600052603260045260246000fd5b60200260200101819052508080610dd3906115de565b915050610d3b565b5080935050505090565b60006020528060005260406000206000915090508060000154908060010160009054906101000a900473ffffffffffffffffffffffffffffffffffffffff1690806002018054610e349061157b565b80601f0160208091040260200160405190810160405280929190818152602001828054610e609061157b565b8015610ead5780601f10610e8257610100808354040283529160200191610ead565b820191906000526020600020905b815481529060010190602001808311610e9057829003601f168201915b5050505050908060030160009054906101000a900460ff16905084565b6000444233604051602001610ee193929190611326565b6040516020818303038152906040528051906020012060001c905090565b604051806080016040528060008152602001600073ffffffffffffffffffffffffffffffffffffffff168152602001606081526020016000151581525090565b828054610f4b9061157b565b90600052602060002090601f016020900481019282610f6d5760008555610fb4565b82601f10610f8657805160ff1916838001178555610fb4565b82800160010185558215610fb4579182015b82811115610fb3578251825591602001919060010190610f98565b5b509050610fc19190610fc5565b5090565b5b80821115610fde576000816000905550600101610fc6565b5090565b6000610ff5610ff08461145a565b611435565b90508281526020810184848401111561100d57600080fd5b611018848285611539565b509392505050565b600082601f83011261103157600080fd5b8135611041848260208601610fe2565b91505092915050565b60008135905061105981611729565b92915050565b60006020828403121561107157600080fd5b600082013567ffffffffffffffff81111561108b57600080fd5b61109784828501611020565b91505092915050565b6000602082840312156110b257600080fd5b60006110c08482850161104a565b91505092915050565b600080604083850312156110dc57600080fd5b60006110ea8582860161104a565b925050602083013567ffffffffffffffff81111561110757600080fd5b61111385828601611020565b9150509250929050565b6000611129838361128e565b905092915050565b61113a816114f1565b82525050565b611149816114f1565b82525050565b61116061115b826114f1565b611627565b82525050565b60006111718261149b565b61117b81856114be565b93508360208202850161118d8561148b565b8060005b858110156111c957848403895281516111aa858261111d565b94506111b5836114b1565b925060208a01995050600181019050611191565b50829750879550505050505092915050565b6111e481611503565b82525050565b6111f381611503565b82525050565b6000611204826114a6565b61120e81856114cf565b935061121e818560208601611548565b611227816116e2565b840191505092915050565b600061123d826114a6565b61124781856114e0565b9350611257818560208601611548565b611260816116e2565b840191505092915050565b60006112786017836114e0565b915061128382611700565b602082019050919050565b60006080830160008301516112a660008601826112f1565b5060208301516112b96020860182611131565b50604083015184820360408601526112d182826111f9565b91505060608301516112e660608601826111db565b508091505092915050565b6112fa8161152f565b82525050565b6113098161152f565b82525050565b61132061131b8261152f565b61164b565b82525050565b6000611332828661130f565b602082019150611342828561130f565b602082019150611352828461114f565b601482019150819050949350505050565b6000602082019050818103600083015261137d8184611166565b905092915050565b6000602082019050818103600083015261139e8161126b565b9050919050565b60006020820190506113ba6000830184611300565b92915050565b60006080820190506113d56000830187611300565b6113e26020830186611140565b81810360408301526113f48185611232565b905061140360608301846111ea565b95945050505050565b60006040820190506114216000830185611300565b61142e60208301846111ea565b9392505050565b600061143f611450565b905061144b82826115ad565b919050565b6000604051905090565b600067ffffffffffffffff821115611475576114746116b3565b5b61147e826116e2565b9050602081019050919050565b6000819050602082019050919050565b600081519050919050565b600081519050919050565b6000602082019050919050565b600082825260208201905092915050565b600082825260208201905092915050565b600082825260208201905092915050565b60006114fc8261150f565b9050919050565b60008115159050919050565b600073ffffffffffffffffffffffffffffffffffffffff82169050919050565b6000819050919050565b82818337600083830152505050565b60005b8381101561156657808201518184015260208101905061154b565b83811115611575576000848401525b50505050565b6000600282049050600182168061159357607f821691505b602082108114156115a7576115a6611684565b5b50919050565b6115b6826116e2565b810181811067ffffffffffffffff821117156115d5576115d46116b3565b5b80604052505050565b60006115e98261152f565b91507fffffffffffffffffffffffffffffffffffffffffffffffffffffffffffffffff82141561161c5761161b611655565b5b600182019050919050565b600061163282611639565b9050919050565b6000611644826116f3565b9050919050565b6000819050919050565b7f4e487b7100000000000000000000000000000000000000000000000000000000600052601160045260246000fd5b7f4e487b7100000000000000000000000000000000000000000000000000000000600052602260045260246000fd5b7f4e487b7100000000000000000000000000000000000000000000000000000000600052604160045260246000fd5b6000601f19601f8301169050919050565b60008160601b9050919050565b7f596f7520617265206e6f74207477656574206f776e6572000000000000000000600082015250565b6117328161152f565b811461173d57600080fd5b5056fea26469706673582212206f4c64fb4e7aed42241589b4e8ebce008659637db11f68b546a6131a11058a0364736f6c63430008040033",
  "linkReferences": {},
  "deployedLinkReferences": {}
}